{
  "_format": "hh-sol-artifact-1",
  "contractName": "FileRegistry",
  "sourceName": "contracts/FileRegistry.sol",
  "abi": [
    {
      "inputs": [],
      "stateMutability": "nonpayable",
      "type": "constructor"
    },
    {
      "anonymous": false,
      "inputs": [
        {
          "indexed": false,
          "internalType": "string",
          "name": "ipfsHash",
          "type": "string"
        },
        {
          "indexed": false,
          "internalType": "string",
          "name": "fileName",
          "type": "string"
        },
        {
          "indexed": false,
          "internalType": "uint256",
          "name": "fileSize",
          "type": "uint256"
        },
        {
          "indexed": false,
          "internalType": "string",
          "name": "fileType",
          "type": "string"
        },
        {
          "indexed": false,
          "internalType": "uint256",
          "name": "timestamp",
          "type": "uint256"
        },
        {
          "indexed": false,
          "internalType": "address",
          "name": "registrant",
          "type": "address"
        }
      ],
      "name": "FileRegistered",
      "type": "event"
    },
    {
      "anonymous": false,
      "inputs": [
        {
          "indexed": true,
          "internalType": "bytes32",
          "name": "role",
          "type": "bytes32"
        },
        {
          "indexed": true,
          "internalType": "bytes32",
          "name": "previousAdminRole",
          "type": "bytes32"
        },
        {
          "indexed": true,
          "internalType": "bytes32",
          "name": "newAdminRole",
          "type": "bytes32"
        }
      ],
      "name": "RoleAdminChanged",
      "type": "event"
    },
    {
      "anonymous": false,
      "inputs": [
        {
          "indexed": true,
          "internalType": "bytes32",
          "name": "role",
          "type": "bytes32"
        },
        {
          "indexed": true,
          "internalType": "address",
          "name": "account",
          "type": "address"
        },
        {
          "indexed": true,
          "internalType": "address",
          "name": "sender",
          "type": "address"
        }
      ],
      "name": "RoleGranted",
      "type": "event"
    },
    {
      "anonymous": false,
      "inputs": [
        {
          "indexed": true,
          "internalType": "bytes32",
          "name": "role",
          "type": "bytes32"
        },
        {
          "indexed": true,
          "internalType": "address",
          "name": "account",
          "type": "address"
        },
        {
          "indexed": true,
          "internalType": "address",
          "name": "sender",
          "type": "address"
        }
      ],
      "name": "RoleRevoked",
      "type": "event"
    },
    {
      "inputs": [],
      "name": "DEFAULT_ADMIN_ROLE",
      "outputs": [
        {
          "internalType": "bytes32",
          "name": "",
          "type": "bytes32"
        }
      ],
      "stateMutability": "view",
      "type": "function"
    },
    {
      "inputs": [],
      "name": "UPLOADER_ROLE",
      "outputs": [
        {
          "internalType": "bytes32",
          "name": "",
          "type": "bytes32"
        }
      ],
      "stateMutability": "view",
      "type": "function"
    },
    {
      "inputs": [],
      "name": "getAllFiles",
      "outputs": [
        {
          "components": [
            {
              "internalType": "string",
              "name": "ipfsHash",
              "type": "string"
            },
            {
              "internalType": "string",
              "name": "fileName",
              "type": "string"
            },
            {
              "internalType": "uint256",
              "name": "fileSize",
              "type": "uint256"
            },
            {
              "internalType": "string",
              "name": "fileType",
              "type": "string"
            },
            {
              "internalType": "uint256",
              "name": "timestamp",
              "type": "uint256"
            },
            {
              "internalType": "address",
              "name": "registrant",
              "type": "address"
            }
          ],
          "internalType": "struct FileRegistry.File[]",
          "name": "",
          "type": "tuple[]"
        }
      ],
      "stateMutability": "view",
      "type": "function"
    },
    {
      "inputs": [
        {
          "internalType": "string",
          "name": "ipfsHash",
          "type": "string"
        }
      ],
      "name": "getFile",
      "outputs": [
        {
          "components": [
            {
              "internalType": "string",
              "name": "ipfsHash",
              "type": "string"
            },
            {
              "internalType": "string",
              "name": "fileName",
              "type": "string"
            },
            {
              "internalType": "uint256",
              "name": "fileSize",
              "type": "uint256"
            },
            {
              "internalType": "string",
              "name": "fileType",
              "type": "string"
            },
            {
              "internalType": "uint256",
              "name": "timestamp",
              "type": "uint256"
            },
            {
              "internalType": "address",
              "name": "registrant",
              "type": "address"
            }
          ],
          "internalType": "struct FileRegistry.File",
          "name": "",
          "type": "tuple"
        }
      ],
      "stateMutability": "view",
      "type": "function"
    },
    {
      "inputs": [
        {
          "internalType": "bytes32",
          "name": "role",
          "type": "bytes32"
        }
      ],
      "name": "getRoleAdmin",
      "outputs": [
        {
          "internalType": "bytes32",
          "name": "",
          "type": "bytes32"
        }
      ],
      "stateMutability": "view",
      "type": "function"
    },
    {
      "inputs": [
        {
          "internalType": "bytes32",
          "name": "role",
          "type": "bytes32"
        },
        {
          "internalType": "address",
          "name": "account",
          "type": "address"
        }
      ],
      "name": "grantRole",
      "outputs": [],
      "stateMutability": "nonpayable",
      "type": "function"
    },
    {
      "inputs": [
        {
          "internalType": "bytes32",
          "name": "role",
          "type": "bytes32"
        },
        {
          "internalType": "address",
          "name": "account",
          "type": "address"
        }
      ],
      "name": "hasRole",
      "outputs": [
        {
          "internalType": "bool",
          "name": "",
          "type": "bool"
        }
      ],
      "stateMutability": "view",
      "type": "function"
    },
    {
      "inputs": [
        {
          "internalType": "string",
          "name": "ipfsHash",
          "type": "string"
        },
        {
          "internalType": "string",
          "name": "fileName",
          "type": "string"
        },
        {
          "internalType": "uint256",
          "name": "fileSize",
          "type": "uint256"
        },
        {
          "internalType": "string",
          "name": "fileType",
          "type": "string"
        },
        {
          "internalType": "uint256",
          "name": "timestamp",
          "type": "uint256"
        }
      ],
      "name": "registerFile",
      "outputs": [],
      "stateMutability": "nonpayable",
      "type": "function"
    },
    {
      "inputs": [
        {
          "internalType": "bytes32",
          "name": "role",
          "type": "bytes32"
        },
        {
          "internalType": "address",
          "name": "account",
          "type": "address"
        }
      ],
      "name": "renounceRole",
      "outputs": [],
      "stateMutability": "nonpayable",
      "type": "function"
    },
    {
      "inputs": [
        {
          "internalType": "bytes32",
          "name": "role",
          "type": "bytes32"
        },
        {
          "internalType": "address",
          "name": "account",
          "type": "address"
        }
      ],
      "name": "revokeRole",
      "outputs": [],
      "stateMutability": "nonpayable",
      "type": "function"
    },
    {
      "inputs": [
        {
          "internalType": "bytes4",
          "name": "interfaceId",
          "type": "bytes4"
        }
      ],
      "name": "supportsInterface",
      "outputs": [
        {
          "internalType": "bool",
          "name": "",
          "type": "bool"
        }
      ],
      "stateMutability": "view",
      "type": "function"
    }
  ],
  "bytecode": "0x608060405234801561001057600080fd5b5061001c60003361004b565b6100467f922390b27f65d828a1f7695b2eaae33fd0be87496792afddba1d25446a8fcb913361004b565b6100ea565b6000828152602081815260408083206001600160a01b038516845290915290205460ff166100e6576000828152602081815260408083206001600160a01b03851684529091529020805460ff191660011790556100a53390565b6001600160a01b0316816001600160a01b0316837f2f8788117e7eff1d82e926ec794901d17c78024a50270940304540a733656f0d60405160405180910390a45b5050565b6113c2806100f96000396000f3fe608060405234801561001057600080fd5b50600436106100a95760003560e01c80636901f238116100715780636901f2381461015657806391d1485414610169578063a217fddf1461017c578063d547741f14610184578063e0876aa814610197578063ff24b5d5146101b757600080fd5b806301ffc9a7146100ae578063248a9ca3146100d65780632f2ff15d1461010757806336568abe1461011c57806361cc07661461012f575b600080fd5b6100c16100bc366004610d0e565b6101cc565b60405190151581526020015b60405180910390f35b6100f96100e4366004610d38565b60009081526020819052604090206001015490565b6040519081526020016100cd565b61011a610115366004610d51565b610203565b005b61011a61012a366004610d51565b61022d565b6100f97f922390b27f65d828a1f7695b2eaae33fd0be87496792afddba1d25446a8fcb9181565b61011a610164366004610e30565b6102b0565b6100c1610177366004610d51565b6104a3565b6100f9600081565b61011a610192366004610d51565b6104cc565b6101aa6101a5366004610eca565b6104f1565b6040516100cd9190610fd2565b6101bf610706565b6040516100cd9190610fe5565b60006001600160e01b03198216637965db0b60e01b14806101fd57506301ffc9a760e01b6001600160e01b03198316145b92915050565b60008281526020819052604090206001015461021e816109cb565b61022883836109d8565b505050565b6001600160a01b03811633146102a25760405162461bcd60e51b815260206004820152602f60248201527f416363657373436f6e74726f6c3a2063616e206f6e6c792072656e6f756e636560448201526e103937b632b9903337b91039b2b63360891b60648201526084015b60405180910390fd5b6102ac8282610a5c565b5050565b7f922390b27f65d828a1f7695b2eaae33fd0be87496792afddba1d25446a8fcb916102da816109cb565b6001866040516102ea9190611047565b908152604051908190036020019020805461030490611063565b1590506103535760405162461bcd60e51b815260206004820152601860248201527f46696c6520616c726561647920726567697374657265642e00000000000000006044820152606401610299565b6040518060c00160405280878152602001868152602001858152602001848152602001838152602001336001600160a01b03168152506001876040516103999190611047565b908152604051908190036020019020815181906103b690826110e5565b50602082015160018201906103cb90826110e5565b5060408201516002820155606082015160038201906103ea90826110e5565b506080820151600482015560a090910151600590910180546001600160a01b0319166001600160a01b03909216919091179055600280546001810182556000919091527f405787fa12a823e0f2b7631cc41b3ba8828b3321ca811111fa75cd3aa3bb5ace0161045987826110e5565b507fe9a36e6147be36028717c2e6c33d36b4088d62d4313535766ebb8e9d0f8bf472868686868633604051610493969594939291906111a5565b60405180910390a1505050505050565b6000918252602082815260408084206001600160a01b0393909316845291905290205460ff1690565b6000828152602081905260409020600101546104e7816109cb565b6102288383610a5c565b6104f9610ccf565b6001826040516105099190611047565b90815260200160405180910390206040518060c001604052908160008201805461053290611063565b80601f016020809104026020016040519081016040528092919081815260200182805461055e90611063565b80156105ab5780601f10610580576101008083540402835291602001916105ab565b820191906000526020600020905b81548152906001019060200180831161058e57829003601f168201915b505050505081526020016001820180546105c490611063565b80601f01602080910402602001604051908101604052809291908181526020018280546105f090611063565b801561063d5780601f106106125761010080835404028352916020019161063d565b820191906000526020600020905b81548152906001019060200180831161062057829003601f168201915b505050505081526020016002820154815260200160038201805461066090611063565b80601f016020809104026020016040519081016040528092919081815260200182805461068c90611063565b80156106d95780601f106106ae576101008083540402835291602001916106d9565b820191906000526020600020905b8154815290600101906020018083116106bc57829003601f168201915b5050509183525050600482015460208201526005909101546001600160a01b031660409091015292915050565b60025460609060009067ffffffffffffffff81111561072757610727610d8d565b60405190808252806020026020018201604052801561076057816020015b61074d610ccf565b8152602001906001900390816107455790505b50905060005b6002548110156109c55760016002828154811061078557610785611208565b9060005260206000200160405161079c919061121e565b90815260200160405180910390206040518060c00160405290816000820180546107c590611063565b80601f01602080910402602001604051908101604052809291908181526020018280546107f190611063565b801561083e5780601f106108135761010080835404028352916020019161083e565b820191906000526020600020905b81548152906001019060200180831161082157829003601f168201915b5050505050815260200160018201805461085790611063565b80601f016020809104026020016040519081016040528092919081815260200182805461088390611063565b80156108d05780601f106108a5576101008083540402835291602001916108d0565b820191906000526020600020905b8154815290600101906020018083116108b357829003601f168201915b50505050508152602001600282015481526020016003820180546108f390611063565b80601f016020809104026020016040519081016040528092919081815260200182805461091f90611063565b801561096c5780601f106109415761010080835404028352916020019161096c565b820191906000526020600020905b81548152906001019060200180831161094f57829003601f168201915b5050509183525050600482015460208201526005909101546001600160a01b031660409091015282518390839081106109a7576109a7611208565b602002602001018190525080806109bd906112aa565b915050610766565b50919050565b6109d58133610ac1565b50565b6109e282826104a3565b6102ac576000828152602081815260408083206001600160a01b03851684529091529020805460ff19166001179055610a183390565b6001600160a01b0316816001600160a01b0316837f2f8788117e7eff1d82e926ec794901d17c78024a50270940304540a733656f0d60405160405180910390a45050565b610a6682826104a3565b156102ac576000828152602081815260408083206001600160a01b0385168085529252808320805460ff1916905551339285917ff6391f5c32d9c69d2a47ea670b442974b53935d1edc7fd64eb21e047a839171b9190a45050565b610acb82826104a3565b6102ac57610ad881610b1a565b610ae3836020610b2c565b604051602001610af49291906112c3565b60408051601f198184030181529082905262461bcd60e51b825261029991600401611338565b60606101fd6001600160a01b03831660145b60606000610b3b83600261134b565b610b46906002611362565b67ffffffffffffffff811115610b5e57610b5e610d8d565b6040519080825280601f01601f191660200182016040528015610b88576020820181803683370190505b509050600360fc1b81600081518110610ba357610ba3611208565b60200101906001600160f81b031916908160001a905350600f60fb1b81600181518110610bd257610bd2611208565b60200101906001600160f81b031916908160001a9053506000610bf684600261134b565b610c01906001611362565b90505b6001811115610c79576f181899199a1a9b1b9c1cb0b131b232b360811b85600f1660108110610c3557610c35611208565b1a60f81b828281518110610c4b57610c4b611208565b60200101906001600160f81b031916908160001a90535060049490941c93610c7281611375565b9050610c04565b508315610cc85760405162461bcd60e51b815260206004820181905260248201527f537472696e67733a20686578206c656e67746820696e73756666696369656e746044820152606401610299565b9392505050565b6040518060c00160405280606081526020016060815260200160008152602001606081526020016000815260200160006001600160a01b031681525090565b600060208284031215610d2057600080fd5b81356001600160e01b031981168114610cc857600080fd5b600060208284031215610d4a57600080fd5b5035919050565b60008060408385031215610d6457600080fd5b8235915060208301356001600160a01b0381168114610d8257600080fd5b809150509250929050565b634e487b7160e01b600052604160045260246000fd5b600082601f830112610db457600080fd5b813567ffffffffffffffff80821115610dcf57610dcf610d8d565b604051601f8301601f19908116603f01168101908282118183101715610df757610df7610d8d565b81604052838152866020858801011115610e1057600080fd5b836020870160208301376000602085830101528094505050505092915050565b600080600080600060a08688031215610e4857600080fd5b853567ffffffffffffffff80821115610e6057600080fd5b610e6c89838a01610da3565b96506020880135915080821115610e8257600080fd5b610e8e89838a01610da3565b9550604088013594506060880135915080821115610eab57600080fd5b50610eb888828901610da3565b95989497509295608001359392505050565b600060208284031215610edc57600080fd5b813567ffffffffffffffff811115610ef357600080fd5b610eff84828501610da3565b949350505050565b60005b83811015610f22578181015183820152602001610f0a565b50506000910152565b60008151808452610f43816020860160208601610f07565b601f01601f19169290920160200192915050565b6000815160c08452610f6c60c0850182610f2b565b905060208301518482036020860152610f858282610f2b565b9150506040830151604085015260608301518482036060860152610fa98282610f2b565b6080858101519087015260a0948501516001600160a01b03169490950193909352509192915050565b602081526000610cc86020830184610f57565b6000602080830181845280855180835260408601915060408160051b870101925083870160005b8281101561103a57603f19888603018452611028858351610f57565b9450928501929085019060010161100c565b5092979650505050505050565b60008251611059818460208701610f07565b9190910192915050565b600181811c9082168061107757607f821691505b6020821081036109c557634e487b7160e01b600052602260045260246000fd5b601f82111561022857600081815260208120601f850160051c810160208610156110be5750805b601f850160051c820191505b818110156110dd578281556001016110ca565b505050505050565b815167ffffffffffffffff8111156110ff576110ff610d8d565b6111138161110d8454611063565b84611097565b602080601f83116001811461114857600084156111305750858301515b600019600386901b1c1916600185901b1785556110dd565b600085815260208120601f198616915b8281101561117757888601518255948401946001909101908401611158565b50858210156111955787850151600019600388901b60f8161c191681555b5050505050600190811b01905550565b60c0815260006111b860c0830189610f2b565b82810360208401526111ca8189610f2b565b905086604084015282810360608401526111e48187610f2b565b608084019590955250506001600160a01b039190911660a090910152949350505050565b634e487b7160e01b600052603260045260246000fd5b600080835461122c81611063565b60018281168015611244576001811461125957611288565b60ff1984168752821515830287019450611288565b8760005260208060002060005b8581101561127f5781548a820152908401908201611266565b50505082870194505b50929695505050505050565b634e487b7160e01b600052601160045260246000fd5b6000600182016112bc576112bc611294565b5060010190565b7f416363657373436f6e74726f6c3a206163636f756e74200000000000000000008152600083516112fb816017850160208801610f07565b7001034b99036b4b9b9b4b733903937b6329607d1b601791840191820152835161132c816028840160208801610f07565b01602801949350505050565b602081526000610cc86020830184610f2b565b80820281158282048414176101fd576101fd611294565b808201808211156101fd576101fd611294565b60008161138457611384611294565b50600019019056fea26469706673582212204722136ca5245a79bfd48c5c5bdd29c7b082573cb8312293843eac292afa3ba464736f6c63430008140033",
  "linkReferences": {},
  "deployedLinkReferences": {}
}